{
  "contracts/AttestRevoke.sol": {
    "orgaFactoryAttestRevoke": {
      "abi": [
        {
          "inputs": [
            {
              "internalType": "address",
              "name": "_masterContract",
              "type": "address"
            }
          ],
          "stateMutability": "nonpayable",
          "type": "constructor"
        },
        {
          "inputs": [],
          "name": "FailedDeployment",
          "type": "error"
        },
        {
          "inputs": [
            {
              "internalType": "uint256",
              "name": "balance",
              "type": "uint256"
            },
            {
              "internalType": "uint256",
              "name": "needed",
              "type": "uint256"
            }
          ],
          "name": "InsufficientBalance",
          "type": "error"
        },
        {
          "anonymous": false,
          "inputs": [
            {
              "indexed": true,
              "internalType": "address",
              "name": "creator",
              "type": "address"
            },
            {
              "indexed": false,
              "internalType": "address",
              "name": "orga",
              "type": "address"
            }
          ],
          "name": "NewOrga",
          "type": "event"
        },
        {
          "inputs": [
            {
              "internalType": "string",
              "name": "name_",
              "type": "string"
            }
          ],
          "name": "createOrga",
          "outputs": [
            {
              "internalType": "address",
              "name": "",
              "type": "address"
            }
          ],
          "stateMutability": "nonpayable",
          "type": "function"
        },
        {
          "inputs": [
            {
              "internalType": "address",
              "name": "orga",
              "type": "address"
            }
          ],
          "name": "doesOrgaExist",
          "outputs": [
            {
              "internalType": "bool",
              "name": "",
              "type": "bool"
            }
          ],
          "stateMutability": "view",
          "type": "function"
        },
        {
          "inputs": [],
          "name": "getOrgas",
          "outputs": [
            {
              "internalType": "address[]",
              "name": "",
              "type": "address[]"
            }
          ],
          "stateMutability": "view",
          "type": "function"
        },
        {
          "inputs": [
            {
              "internalType": "address",
              "name": "user",
              "type": "address"
            }
          ],
          "name": "getOrgasByUser",
          "outputs": [
            {
              "internalType": "address[]",
              "name": "",
              "type": "address[]"
            }
          ],
          "stateMutability": "view",
          "type": "function"
        },
        {
          "inputs": [],
          "name": "logicContractAddress",
          "outputs": [
            {
              "internalType": "address",
              "name": "",
              "type": "address"
            }
          ],
          "stateMutability": "view",
          "type": "function"
        },
        {
          "inputs": [
            {
              "internalType": "address",
              "name": "",
              "type": "address"
            }
          ],
          "name": "orgaAddressToOrgaName",
          "outputs": [
            {
              "internalType": "string",
              "name": "",
              "type": "string"
            }
          ],
          "stateMutability": "view",
          "type": "function"
        },
        {
          "inputs": [
            {
              "internalType": "uint256",
              "name": "",
              "type": "uint256"
            }
          ],
          "name": "orgas",
          "outputs": [
            {
              "internalType": "address",
              "name": "",
              "type": "address"
            }
          ],
          "stateMutability": "view",
          "type": "function"
        },
        {
          "inputs": [
            {
              "internalType": "address",
              "name": "",
              "type": "address"
            },
            {
              "internalType": "uint256",
              "name": "",
              "type": "uint256"
            }
          ],
          "name": "userToOrgas",
          "outputs": [
            {
              "internalType": "address",
              "name": "",
              "type": "address"
            }
          ],
          "stateMutability": "view",
          "type": "function"
        },
        {
          "inputs": [],
          "name": "version",
          "outputs": [
            {
              "internalType": "string",
              "name": "",
              "type": "string"
            }
          ],
          "stateMutability": "view",
          "type": "function"
        }
      ],
      "evm": {
        "bytecode": {
          "linkReferences": {},
          "object": "608060405234801561001057600080fd5b506040516113373803806113378339818101604052810190610032919061014b565b600073ffffffffffffffffffffffffffffffffffffffff168173ffffffffffffffffffffffffffffffffffffffff16036100a1576040517f08c379a0000000000000000000000000000000000000000000000000000000008152600401610098906101d5565b60405180910390fd5b80600360006101000a81548173ffffffffffffffffffffffffffffffffffffffff021916908373ffffffffffffffffffffffffffffffffffffffff160217905550506101f5565b600080fd5b600073ffffffffffffffffffffffffffffffffffffffff82169050919050565b6000610118826100ed565b9050919050565b6101288161010d565b811461013357600080fd5b50565b6000815190506101458161011f565b92915050565b600060208284031215610161576101606100e8565b5b600061016f84828501610136565b91505092915050565b600082825260208201905092915050565b7f496e76616c696420636f6e747261637420616464726573730000000000000000600082015250565b60006101bf601883610178565b91506101ca82610189565b602082019050919050565b600060208201905081810360008301526101ee816101b2565b9050919050565b611133806102046000396000f3fe608060405234801561001057600080fd5b50600436106100925760003560e01c80638068d50c116100665780638068d50c14610133578063b1808b6f14610163578063bccda81014610193578063bfd38b8d146101b1578063d4b904e4146101e157610092565b8062becc1c14610097578063127acc22146100c757806354fd4d50146100e5578063635115b614610103575b600080fd5b6100b160048036038101906100ac9190610953565b610211565b6040516100be9190610a3e565b60405180910390f35b6100cf6102dd565b6040516100dc9190610a3e565b60405180910390f35b6100ed61036b565b6040516100fa9190610af0565b60405180910390f35b61011d60048036038101906101189190610953565b6103a4565b60405161012a9190610af0565b60405180910390f35b61014d60048036038101906101489190610b77565b610444565b60405161015a9190610bd3565b60405180910390f35b61017d60048036038101906101789190610c24565b6106d4565b60405161018a9190610bd3565b60405180910390f35b61019b610722565b6040516101a89190610bd3565b60405180910390f35b6101cb60048036038101906101c69190610c64565b610748565b6040516101d89190610bd3565b60405180910390f35b6101fb60048036038101906101f69190610953565b610787565b6040516102089190610cac565b60405180910390f35b60606000808373ffffffffffffffffffffffffffffffffffffffff1673ffffffffffffffffffffffffffffffffffffffff1681526020019081526020016000208054806020026020016040519081016040528092919081815260200182805480156102d157602002820191906000526020600020905b8160009054906101000a900473ffffffffffffffffffffffffffffffffffffffff1673ffffffffffffffffffffffffffffffffffffffff1681526020019060010190808311610287575b50505050509050919050565b6060600280548060200260200160405190810160405280929190818152602001828054801561036157602002820191906000526020600020905b8160009054906101000a900473ffffffffffffffffffffffffffffffffffffffff1673ffffffffffffffffffffffffffffffffffffffff1681526020019060010190808311610317575b5050505050905090565b6040518060400160405280600381526020017f302e34000000000000000000000000000000000000000000000000000000000081525081565b600160205280600052604060002060009150905080546103c390610cf6565b80601f01602080910402602001604051908101604052809291908181526020018280546103ef90610cf6565b801561043c5780601f106104115761010080835404028352916020019161043c565b820191906000526020600020905b81548152906001019060200180831161041f57829003601f168201915b505050505081565b600080838390501161048b576040517f08c379a000000000000000000000000000000000000000000000000000000000815260040161048290610d73565b60405180910390fd5b60006104b8600360009054906101000a900473ffffffffffffffffffffffffffffffffffffffff166107df565b90508073ffffffffffffffffffffffffffffffffffffffff16637bb7c0d8338686306040518563ffffffff1660e01b81526004016104f99493929190610dcf565b600060405180830381600087803b15801561051357600080fd5b505af1158015610527573d6000803e3d6000fd5b505050506002819080600181540180825580915050600190039060005260206000200160009091909190916101000a81548173ffffffffffffffffffffffffffffffffffffffff021916908373ffffffffffffffffffffffffffffffffffffffff1602179055506000803373ffffffffffffffffffffffffffffffffffffffff1673ffffffffffffffffffffffffffffffffffffffff168152602001908152602001600020819080600181540180825580915050600190039060005260206000200160009091909190916101000a81548173ffffffffffffffffffffffffffffffffffffffff021916908373ffffffffffffffffffffffffffffffffffffffff1602179055508383600160008473ffffffffffffffffffffffffffffffffffffffff1673ffffffffffffffffffffffffffffffffffffffff168152602001908152602001600020918261067b929190610ff5565b503373ffffffffffffffffffffffffffffffffffffffff167f85c6a1447d2622e0fc09bf8993f04c6a9c8f9d415d1b984db8a020276ba4bebf826040516106c29190610bd3565b60405180910390a28091505092915050565b600060205281600052604060002081815481106106f057600080fd5b906000526020600020016000915091509054906101000a900473ffffffffffffffffffffffffffffffffffffffff1681565b600360009054906101000a900473ffffffffffffffffffffffffffffffffffffffff1681565b6002818154811061075857600080fd5b906000526020600020016000915054906101000a900473ffffffffffffffffffffffffffffffffffffffff1681565b600080600160008473ffffffffffffffffffffffffffffffffffffffff1673ffffffffffffffffffffffffffffffffffffffff16815260200190815260200160002080546107d490610cf6565b905014159050919050565b60006107ec8260006107f3565b9050919050565b60008147101561083c5747826040517fcf4791810000000000000000000000000000000000000000000000000000000081526004016108339291906110d4565b60405180910390fd5b763d602d80600a3d3981f3363d3d373d3d3d363d730000008360601b60e81c176000526e5af43d82803e903d91602b57fd5bf38360781b176020526037600983f09050600073ffffffffffffffffffffffffffffffffffffffff168173ffffffffffffffffffffffffffffffffffffffff16036108e5576040517fb06ebf3d00000000000000000000000000000000000000000000000000000000815260040160405180910390fd5b92915050565b600080fd5b600080fd5b600073ffffffffffffffffffffffffffffffffffffffff82169050919050565b6000610920826108f5565b9050919050565b61093081610915565b811461093b57600080fd5b50565b60008135905061094d81610927565b92915050565b600060208284031215610969576109686108eb565b5b60006109778482850161093e565b91505092915050565b600081519050919050565b600082825260208201905092915050565b6000819050602082019050919050565b6109b581610915565b82525050565b60006109c783836109ac565b60208301905092915050565b6000602082019050919050565b60006109eb82610980565b6109f5818561098b565b9350610a008361099c565b8060005b83811015610a31578151610a1888826109bb565b9750610a23836109d3565b925050600181019050610a04565b5085935050505092915050565b60006020820190508181036000830152610a5881846109e0565b905092915050565b600081519050919050565b600082825260208201905092915050565b60005b83811015610a9a578082015181840152602081019050610a7f565b60008484015250505050565b6000601f19601f8301169050919050565b6000610ac282610a60565b610acc8185610a6b565b9350610adc818560208601610a7c565b610ae581610aa6565b840191505092915050565b60006020820190508181036000830152610b0a8184610ab7565b905092915050565b600080fd5b600080fd5b600080fd5b60008083601f840112610b3757610b36610b12565b5b8235905067ffffffffffffffff811115610b5457610b53610b17565b5b602083019150836001820283011115610b7057610b6f610b1c565b5b9250929050565b60008060208385031215610b8e57610b8d6108eb565b5b600083013567ffffffffffffffff811115610bac57610bab6108f0565b5b610bb885828601610b21565b92509250509250929050565b610bcd81610915565b82525050565b6000602082019050610be86000830184610bc4565b92915050565b6000819050919050565b610c0181610bee565b8114610c0c57600080fd5b50565b600081359050610c1e81610bf8565b92915050565b60008060408385031215610c3b57610c3a6108eb565b5b6000610c498582860161093e565b9250506020610c5a85828601610c0f565b9150509250929050565b600060208284031215610c7a57610c796108eb565b5b6000610c8884828501610c0f565b91505092915050565b60008115159050919050565b610ca681610c91565b82525050565b6000602082019050610cc16000830184610c9d565b92915050565b7f4e487b7100000000000000000000000000000000000000000000000000000000600052602260045260246000fd5b60006002820490506001821680610d0e57607f821691505b602082108103610d2157610d20610cc7565b5b50919050565b7f6e616d655f2063616e6e6f7420626520656d7074790000000000000000000000600082015250565b6000610d5d601583610a6b565b9150610d6882610d27565b602082019050919050565b60006020820190508181036000830152610d8c81610d50565b9050919050565b82818337600083830152505050565b6000610dae8385610a6b565b9350610dbb838584610d93565b610dc483610aa6565b840190509392505050565b6000606082019050610de46000830187610bc4565b8181036020830152610df7818587610da2565b9050610e066040830184610bc4565b95945050505050565b600082905092915050565b7f4e487b7100000000000000000000000000000000000000000000000000000000600052604160045260246000fd5b60008190508160005260206000209050919050565b60006020601f8301049050919050565b600082821b905092915050565b600060088302610eab7fffffffffffffffffffffffffffffffffffffffffffffffffffffffffffffffff82610e6e565b610eb58683610e6e565b95508019841693508086168417925050509392505050565b6000819050919050565b6000610ef2610eed610ee884610bee565b610ecd565b610bee565b9050919050565b6000819050919050565b610f0c83610ed7565b610f20610f1882610ef9565b848454610e7b565b825550505050565b600090565b610f35610f28565b610f40818484610f03565b505050565b5b81811015610f6457610f59600082610f2d565b600181019050610f46565b5050565b601f821115610fa957610f7a81610e49565b610f8384610e5e565b81016020851015610f92578190505b610fa6610f9e85610e5e565b830182610f45565b50505b505050565b600082821c905092915050565b6000610fcc60001984600802610fae565b1980831691505092915050565b6000610fe58383610fbb565b9150826002028217905092915050565b610fff8383610e0f565b67ffffffffffffffff81111561101857611017610e1a565b5b6110228254610cf6565b61102d828285610f68565b6000601f83116001811461105c576000841561104a578287013590505b6110548582610fd9565b8655506110bc565b601f19841661106a86610e49565b60005b828110156110925784890135825560018201915060208501945060208101905061106d565b868310156110af57848901356110ab601f891682610fbb565b8355505b6001600288020188555050505b50505050505050565b6110ce81610bee565b82525050565b60006040820190506110e960008301856110c5565b6110f660208301846110c5565b939250505056fea2646970667358221220f836b92d5e06d455180c691f4e5f944804cba59b1077cde4eef78d07df39fe4064736f6c634300081b0033",
          "opcodes": "PUSH1 0x80 PUSH1 0x40 MSTORE CALLVALUE DUP1 ISZERO PUSH2 0x10 JUMPI PUSH1 0x0 DUP1 REVERT JUMPDEST POP PUSH1 0x40 MLOAD PUSH2 0x1337 CODESIZE SUB DUP1 PUSH2 0x1337 DUP4 CODECOPY DUP2 DUP2 ADD PUSH1 0x40 MSTORE DUP2 ADD SWAP1 PUSH2 0x32 SWAP2 SWAP1 PUSH2 0x14B JUMP JUMPDEST PUSH1 0x0 PUSH20 0xFFFFFFFFFFFFFFFFFFFFFFFFFFFFFFFFFFFFFFFF AND DUP2 PUSH20 0xFFFFFFFFFFFFFFFFFFFFFFFFFFFFFFFFFFFFFFFF AND SUB PUSH2 0xA1 JUMPI PUSH1 0x40 MLOAD PUSH32 0x8C379A000000000000000000000000000000000000000000000000000000000 DUP2 MSTORE PUSH1 0x4 ADD PUSH2 0x98 SWAP1 PUSH2 0x1D5 JUMP JUMPDEST PUSH1 0x40 MLOAD DUP1 SWAP2 SUB SWAP1 REVERT JUMPDEST DUP1 PUSH1 0x3 PUSH1 0x0 PUSH2 0x100 EXP DUP2 SLOAD DUP2 PUSH20 0xFFFFFFFFFFFFFFFFFFFFFFFFFFFFFFFFFFFFFFFF MUL NOT AND SWAP1 DUP4 PUSH20 0xFFFFFFFFFFFFFFFFFFFFFFFFFFFFFFFFFFFFFFFF AND MUL OR SWAP1 SSTORE POP POP PUSH2 0x1F5 JUMP JUMPDEST PUSH1 0x0 DUP1 REVERT JUMPDEST PUSH1 0x0 PUSH20 0xFFFFFFFFFFFFFFFFFFFFFFFFFFFFFFFFFFFFFFFF DUP3 AND SWAP1 POP SWAP2 SWAP1 POP JUMP JUMPDEST PUSH1 0x0 PUSH2 0x118 DUP3 PUSH2 0xED JUMP JUMPDEST SWAP1 POP SWAP2 SWAP1 POP JUMP JUMPDEST PUSH2 0x128 DUP2 PUSH2 0x10D JUMP JUMPDEST DUP2 EQ PUSH2 0x133 JUMPI PUSH1 0x0 DUP1 REVERT JUMPDEST POP JUMP JUMPDEST PUSH1 0x0 DUP2 MLOAD SWAP1 POP PUSH2 0x145 DUP2 PUSH2 0x11F JUMP JUMPDEST SWAP3 SWAP2 POP POP JUMP JUMPDEST PUSH1 0x0 PUSH1 0x20 DUP3 DUP5 SUB SLT ISZERO PUSH2 0x161 JUMPI PUSH2 0x160 PUSH2 0xE8 JUMP JUMPDEST JUMPDEST PUSH1 0x0 PUSH2 0x16F DUP5 DUP3 DUP6 ADD PUSH2 0x136 JUMP JUMPDEST SWAP2 POP POP SWAP3 SWAP2 POP POP JUMP JUMPDEST PUSH1 0x0 DUP3 DUP3 MSTORE PUSH1 0x20 DUP3 ADD SWAP1 POP SWAP3 SWAP2 POP POP JUMP JUMPDEST PUSH32 0x496E76616C696420636F6E747261637420616464726573730000000000000000 PUSH1 0x0 DUP3 ADD MSTORE POP JUMP JUMPDEST PUSH1 0x0 PUSH2 0x1BF PUSH1 0x18 DUP4 PUSH2 0x178 JUMP JUMPDEST SWAP2 POP PUSH2 0x1CA DUP3 PUSH2 0x189 JUMP JUMPDEST PUSH1 0x20 DUP3 ADD SWAP1 POP SWAP2 SWAP1 POP JUMP JUMPDEST PUSH1 0x0 PUSH1 0x20 DUP3 ADD SWAP1 POP DUP2 DUP2 SUB PUSH1 0x0 DUP4 ADD MSTORE PUSH2 0x1EE DUP2 PUSH2 0x1B2 JUMP JUMPDEST SWAP1 POP SWAP2 SWAP1 POP JUMP JUMPDEST PUSH2 0x1133 DUP1 PUSH2 0x204 PUSH1 0x0 CODECOPY PUSH1 0x0 RETURN INVALID PUSH1 0x80 PUSH1 0x40 MSTORE CALLVALUE DUP1 ISZERO PUSH2 0x10 JUMPI PUSH1 0x0 DUP1 REVERT JUMPDEST POP PUSH1 0x4 CALLDATASIZE LT PUSH2 0x92 JUMPI PUSH1 0x0 CALLDATALOAD PUSH1 0xE0 SHR DUP1 PUSH4 0x8068D50C GT PUSH2 0x66 JUMPI DUP1 PUSH4 0x8068D50C EQ PUSH2 0x133 JUMPI DUP1 PUSH4 0xB1808B6F EQ PUSH2 0x163 JUMPI DUP1 PUSH4 0xBCCDA810 EQ PUSH2 0x193 JUMPI DUP1 PUSH4 0xBFD38B8D EQ PUSH2 0x1B1 JUMPI DUP1 PUSH4 0xD4B904E4 EQ PUSH2 0x1E1 JUMPI PUSH2 0x92 JUMP JUMPDEST DUP1 PUSH3 0xBECC1C EQ PUSH2 0x97 JUMPI DUP1 PUSH4 0x127ACC22 EQ PUSH2 0xC7 JUMPI DUP1 PUSH4 0x54FD4D50 EQ PUSH2 0xE5 JUMPI DUP1 PUSH4 0x635115B6 EQ PUSH2 0x103 JUMPI JUMPDEST PUSH1 0x0 DUP1 REVERT JUMPDEST PUSH2 0xB1 PUSH1 0x4 DUP1 CALLDATASIZE SUB DUP2 ADD SWAP1 PUSH2 0xAC SWAP2 SWAP1 PUSH2 0x953 JUMP JUMPDEST PUSH2 0x211 JUMP JUMPDEST PUSH1 0x40 MLOAD PUSH2 0xBE SWAP2 SWAP1 PUSH2 0xA3E JUMP JUMPDEST PUSH1 0x40 MLOAD DUP1 SWAP2 SUB SWAP1 RETURN JUMPDEST PUSH2 0xCF PUSH2 0x2DD JUMP JUMPDEST PUSH1 0x40 MLOAD PUSH2 0xDC SWAP2 SWAP1 PUSH2 0xA3E JUMP JUMPDEST PUSH1 0x40 MLOAD DUP1 SWAP2 SUB SWAP1 RETURN JUMPDEST PUSH2 0xED PUSH2 0x36B JUMP JUMPDEST PUSH1 0x40 MLOAD PUSH2 0xFA SWAP2 SWAP1 PUSH2 0xAF0 JUMP JUMPDEST PUSH1 0x40 MLOAD DUP1 SWAP2 SUB SWAP1 RETURN JUMPDEST PUSH2 0x11D PUSH1 0x4 DUP1 CALLDATASIZE SUB DUP2 ADD SWAP1 PUSH2 0x118 SWAP2 SWAP1 PUSH2 0x953 JUMP JUMPDEST PUSH2 0x3A4 JUMP JUMPDEST PUSH1 0x40 MLOAD PUSH2 0x12A SWAP2 SWAP1 PUSH2 0xAF0 JUMP JUMPDEST PUSH1 0x40 MLOAD DUP1 SWAP2 SUB SWAP1 RETURN JUMPDEST PUSH2 0x14D PUSH1 0x4 DUP1 CALLDATASIZE SUB DUP2 ADD SWAP1 PUSH2 0x148 SWAP2 SWAP1 PUSH2 0xB77 JUMP JUMPDEST PUSH2 0x444 JUMP JUMPDEST PUSH1 0x40 MLOAD PUSH2 0x15A SWAP2 SWAP1 PUSH2 0xBD3 JUMP JUMPDEST PUSH1 0x40 MLOAD DUP1 SWAP2 SUB SWAP1 RETURN JUMPDEST PUSH2 0x17D PUSH1 0x4 DUP1 CALLDATASIZE SUB DUP2 ADD SWAP1 PUSH2 0x178 SWAP2 SWAP1 PUSH2 0xC24 JUMP JUMPDEST PUSH2 0x6D4 JUMP JUMPDEST PUSH1 0x40 MLOAD PUSH2 0x18A SWAP2 SWAP1 PUSH2 0xBD3 JUMP JUMPDEST PUSH1 0x40 MLOAD DUP1 SWAP2 SUB SWAP1 RETURN JUMPDEST PUSH2 0x19B PUSH2 0x722 JUMP JUMPDEST PUSH1 0x40 MLOAD PUSH2 0x1A8 SWAP2 SWAP1 PUSH2 0xBD3 JUMP JUMPDEST PUSH1 0x40 MLOAD DUP1 SWAP2 SUB SWAP1 RETURN JUMPDEST PUSH2 0x1CB PUSH1 0x4 DUP1 CALLDATASIZE SUB DUP2 ADD SWAP1 PUSH2 0x1C6 SWAP2 SWAP1 PUSH2 0xC64 JUMP JUMPDEST PUSH2 0x748 JUMP JUMPDEST PUSH1 0x40 MLOAD PUSH2 0x1D8 SWAP2 SWAP1 PUSH2 0xBD3 JUMP JUMPDEST PUSH1 0x40 MLOAD DUP1 SWAP2 SUB SWAP1 RETURN JUMPDEST PUSH2 0x1FB PUSH1 0x4 DUP1 CALLDATASIZE SUB DUP2 ADD SWAP1 PUSH2 0x1F6 SWAP2 SWAP1 PUSH2 0x953 JUMP JUMPDEST PUSH2 0x787 JUMP JUMPDEST PUSH1 0x40 MLOAD PUSH2 0x208 SWAP2 SWAP1 PUSH2 0xCAC JUMP JUMPDEST PUSH1 0x40 MLOAD DUP1 SWAP2 SUB SWAP1 RETURN JUMPDEST PUSH1 0x60 PUSH1 0x0 DUP1 DUP4 PUSH20 0xFFFFFFFFFFFFFFFFFFFFFFFFFFFFFFFFFFFFFFFF AND PUSH20 0xFFFFFFFFFFFFFFFFFFFFFFFFFFFFFFFFFFFFFFFF AND DUP2 MSTORE PUSH1 0x20 ADD SWAP1 DUP2 MSTORE PUSH1 0x20 ADD PUSH1 0x0 KECCAK256 DUP1 SLOAD DUP1 PUSH1 0x20 MUL PUSH1 0x20 ADD PUSH1 0x40 MLOAD SWAP1 DUP2 ADD PUSH1 0x40 MSTORE DUP1 SWAP3 SWAP2 SWAP1 DUP2 DUP2 MSTORE PUSH1 0x20 ADD DUP3 DUP1 SLOAD DUP1 ISZERO PUSH2 0x2D1 JUMPI PUSH1 0x20 MUL DUP3 ADD SWAP2 SWAP1 PUSH1 0x0 MSTORE PUSH1 0x20 PUSH1 0x0 KECCAK256 SWAP1 JUMPDEST DUP2 PUSH1 0x0 SWAP1 SLOAD SWAP1 PUSH2 0x100 EXP SWAP1 DIV PUSH20 0xFFFFFFFFFFFFFFFFFFFFFFFFFFFFFFFFFFFFFFFF AND PUSH20 0xFFFFFFFFFFFFFFFFFFFFFFFFFFFFFFFFFFFFFFFF AND DUP2 MSTORE PUSH1 0x20 ADD SWAP1 PUSH1 0x1 ADD SWAP1 DUP1 DUP4 GT PUSH2 0x287 JUMPI JUMPDEST POP POP POP POP POP SWAP1 POP SWAP2 SWAP1 POP JUMP JUMPDEST PUSH1 0x60 PUSH1 0x2 DUP1 SLOAD DUP1 PUSH1 0x20 MUL PUSH1 0x20 ADD PUSH1 0x40 MLOAD SWAP1 DUP2 ADD PUSH1 0x40 MSTORE DUP1 SWAP3 SWAP2 SWAP1 DUP2 DUP2 MSTORE PUSH1 0x20 ADD DUP3 DUP1 SLOAD DUP1 ISZERO PUSH2 0x361 JUMPI PUSH1 0x20 MUL DUP3 ADD SWAP2 SWAP1 PUSH1 0x0 MSTORE PUSH1 0x20 PUSH1 0x0 KECCAK256 SWAP1 JUMPDEST DUP2 PUSH1 0x0 SWAP1 SLOAD SWAP1 PUSH2 0x100 EXP SWAP1 DIV PUSH20 0xFFFFFFFFFFFFFFFFFFFFFFFFFFFFFFFFFFFFFFFF AND PUSH20 0xFFFFFFFFFFFFFFFFFFFFFFFFFFFFFFFFFFFFFFFF AND DUP2 MSTORE PUSH1 0x20 ADD SWAP1 PUSH1 0x1 ADD SWAP1 DUP1 DUP4 GT PUSH2 0x317 JUMPI JUMPDEST POP POP POP POP POP SWAP1 POP SWAP1 JUMP JUMPDEST PUSH1 0x40 MLOAD DUP1 PUSH1 0x40 ADD PUSH1 0x40 MSTORE DUP1 PUSH1 0x3 DUP2 MSTORE PUSH1 0x20 ADD PUSH32 0x302E340000000000000000000000000000000000000000000000000000000000 DUP2 MSTORE POP DUP2 JUMP JUMPDEST PUSH1 0x1 PUSH1 0x20 MSTORE DUP1 PUSH1 0x0 MSTORE PUSH1 0x40 PUSH1 0x0 KECCAK256 PUSH1 0x0 SWAP2 POP SWAP1 POP DUP1 SLOAD PUSH2 0x3C3 SWAP1 PUSH2 0xCF6 JUMP JUMPDEST DUP1 PUSH1 0x1F ADD PUSH1 0x20 DUP1 SWAP2 DIV MUL PUSH1 0x20 ADD PUSH1 0x40 MLOAD SWAP1 DUP2 ADD PUSH1 0x40 MSTORE DUP1 SWAP3 SWAP2 SWAP1 DUP2 DUP2 MSTORE PUSH1 0x20 ADD DUP3 DUP1 SLOAD PUSH2 0x3EF SWAP1 PUSH2 0xCF6 JUMP JUMPDEST DUP1 ISZERO PUSH2 0x43C JUMPI DUP1 PUSH1 0x1F LT PUSH2 0x411 JUMPI PUSH2 0x100 DUP1 DUP4 SLOAD DIV MUL DUP4 MSTORE SWAP2 PUSH1 0x20 ADD SWAP2 PUSH2 0x43C JUMP JUMPDEST DUP3 ADD SWAP2 SWAP1 PUSH1 0x0 MSTORE PUSH1 0x20 PUSH1 0x0 KECCAK256 SWAP1 JUMPDEST DUP2 SLOAD DUP2 MSTORE SWAP1 PUSH1 0x1 ADD SWAP1 PUSH1 0x20 ADD DUP1 DUP4 GT PUSH2 0x41F JUMPI DUP3 SWAP1 SUB PUSH1 0x1F AND DUP3 ADD SWAP2 JUMPDEST POP POP POP POP POP DUP2 JUMP JUMPDEST PUSH1 0x0 DUP1 DUP4 DUP4 SWAP1 POP GT PUSH2 0x48B JUMPI PUSH1 0x40 MLOAD PUSH32 0x8C379A000000000000000000000000000000000000000000000000000000000 DUP2 MSTORE PUSH1 0x4 ADD PUSH2 0x482 SWAP1 PUSH2 0xD73 JUMP JUMPDEST PUSH1 0x40 MLOAD DUP1 SWAP2 SUB SWAP1 REVERT JUMPDEST PUSH1 0x0 PUSH2 0x4B8 PUSH1 0x3 PUSH1 0x0 SWAP1 SLOAD SWAP1 PUSH2 0x100 EXP SWAP1 DIV PUSH20 0xFFFFFFFFFFFFFFFFFFFFFFFFFFFFFFFFFFFFFFFF AND PUSH2 0x7DF JUMP JUMPDEST SWAP1 POP DUP1 PUSH20 0xFFFFFFFFFFFFFFFFFFFFFFFFFFFFFFFFFFFFFFFF AND PUSH4 0x7BB7C0D8 CALLER DUP7 DUP7 ADDRESS PUSH1 0x40 MLOAD DUP6 PUSH4 0xFFFFFFFF AND PUSH1 0xE0 SHL DUP2 MSTORE PUSH1 0x4 ADD PUSH2 0x4F9 SWAP5 SWAP4 SWAP3 SWAP2 SWAP1 PUSH2 0xDCF JUMP JUMPDEST PUSH1 0x0 PUSH1 0x40 MLOAD DUP1 DUP4 SUB DUP2 PUSH1 0x0 DUP8 DUP1 EXTCODESIZE ISZERO DUP1 ISZERO PUSH2 0x513 JUMPI PUSH1 0x0 DUP1 REVERT JUMPDEST POP GAS CALL ISZERO DUP1 ISZERO PUSH2 0x527 JUMPI RETURNDATASIZE PUSH1 0x0 DUP1 RETURNDATACOPY RETURNDATASIZE PUSH1 0x0 REVERT JUMPDEST POP POP POP POP PUSH1 0x2 DUP2 SWAP1 DUP1 PUSH1 0x1 DUP2 SLOAD ADD DUP1 DUP3 SSTORE DUP1 SWAP2 POP POP PUSH1 0x1 SWAP1 SUB SWAP1 PUSH1 0x0 MSTORE PUSH1 0x20 PUSH1 0x0 KECCAK256 ADD PUSH1 0x0 SWAP1 SWAP2 SWAP1 SWAP2 SWAP1 SWAP2 PUSH2 0x100 EXP DUP2 SLOAD DUP2 PUSH20 0xFFFFFFFFFFFFFFFFFFFFFFFFFFFFFFFFFFFFFFFF MUL NOT AND SWAP1 DUP4 PUSH20 0xFFFFFFFFFFFFFFFFFFFFFFFFFFFFFFFFFFFFFFFF AND MUL OR SWAP1 SSTORE POP PUSH1 0x0 DUP1 CALLER PUSH20 0xFFFFFFFFFFFFFFFFFFFFFFFFFFFFFFFFFFFFFFFF AND PUSH20 0xFFFFFFFFFFFFFFFFFFFFFFFFFFFFFFFFFFFFFFFF AND DUP2 MSTORE PUSH1 0x20 ADD SWAP1 DUP2 MSTORE PUSH1 0x20 ADD PUSH1 0x0 KECCAK256 DUP2 SWAP1 DUP1 PUSH1 0x1 DUP2 SLOAD ADD DUP1 DUP3 SSTORE DUP1 SWAP2 POP POP PUSH1 0x1 SWAP1 SUB SWAP1 PUSH1 0x0 MSTORE PUSH1 0x20 PUSH1 0x0 KECCAK256 ADD PUSH1 0x0 SWAP1 SWAP2 SWAP1 SWAP2 SWAP1 SWAP2 PUSH2 0x100 EXP DUP2 SLOAD DUP2 PUSH20 0xFFFFFFFFFFFFFFFFFFFFFFFFFFFFFFFFFFFFFFFF MUL NOT AND SWAP1 DUP4 PUSH20 0xFFFFFFFFFFFFFFFFFFFFFFFFFFFFFFFFFFFFFFFF AND MUL OR SWAP1 SSTORE POP DUP4 DUP4 PUSH1 0x1 PUSH1 0x0 DUP5 PUSH20 0xFFFFFFFFFFFFFFFFFFFFFFFFFFFFFFFFFFFFFFFF AND PUSH20 0xFFFFFFFFFFFFFFFFFFFFFFFFFFFFFFFFFFFFFFFF AND DUP2 MSTORE PUSH1 0x20 ADD SWAP1 DUP2 MSTORE PUSH1 0x20 ADD PUSH1 0x0 KECCAK256 SWAP2 DUP3 PUSH2 0x67B SWAP3 SWAP2 SWAP1 PUSH2 0xFF5 JUMP JUMPDEST POP CALLER PUSH20 0xFFFFFFFFFFFFFFFFFFFFFFFFFFFFFFFFFFFFFFFF AND PUSH32 0x85C6A1447D2622E0FC09BF8993F04C6A9C8F9D415D1B984DB8A020276BA4BEBF DUP3 PUSH1 0x40 MLOAD PUSH2 0x6C2 SWAP2 SWAP1 PUSH2 0xBD3 JUMP JUMPDEST PUSH1 0x40 MLOAD DUP1 SWAP2 SUB SWAP1 LOG2 DUP1 SWAP2 POP POP SWAP3 SWAP2 POP POP JUMP JUMPDEST PUSH1 0x0 PUSH1 0x20 MSTORE DUP2 PUSH1 0x0 MSTORE PUSH1 0x40 PUSH1 0x0 KECCAK256 DUP2 DUP2 SLOAD DUP2 LT PUSH2 0x6F0 JUMPI PUSH1 0x0 DUP1 REVERT JUMPDEST SWAP1 PUSH1 0x0 MSTORE PUSH1 0x20 PUSH1 0x0 KECCAK256 ADD PUSH1 0x0 SWAP2 POP SWAP2 POP SWAP1 SLOAD SWAP1 PUSH2 0x100 EXP SWAP1 DIV PUSH20 0xFFFFFFFFFFFFFFFFFFFFFFFFFFFFFFFFFFFFFFFF AND DUP2 JUMP JUMPDEST PUSH1 0x3 PUSH1 0x0 SWAP1 SLOAD SWAP1 PUSH2 0x100 EXP SWAP1 DIV PUSH20 0xFFFFFFFFFFFFFFFFFFFFFFFFFFFFFFFFFFFFFFFF AND DUP2 JUMP JUMPDEST PUSH1 0x2 DUP2 DUP2 SLOAD DUP2 LT PUSH2 0x758 JUMPI PUSH1 0x0 DUP1 REVERT JUMPDEST SWAP1 PUSH1 0x0 MSTORE PUSH1 0x20 PUSH1 0x0 KECCAK256 ADD PUSH1 0x0 SWAP2 POP SLOAD SWAP1 PUSH2 0x100 EXP SWAP1 DIV PUSH20 0xFFFFFFFFFFFFFFFFFFFFFFFFFFFFFFFFFFFFFFFF AND DUP2 JUMP JUMPDEST PUSH1 0x0 DUP1 PUSH1 0x1 PUSH1 0x0 DUP5 PUSH20 0xFFFFFFFFFFFFFFFFFFFFFFFFFFFFFFFFFFFFFFFF AND PUSH20 0xFFFFFFFFFFFFFFFFFFFFFFFFFFFFFFFFFFFFFFFF AND DUP2 MSTORE PUSH1 0x20 ADD SWAP1 DUP2 MSTORE PUSH1 0x20 ADD PUSH1 0x0 KECCAK256 DUP1 SLOAD PUSH2 0x7D4 SWAP1 PUSH2 0xCF6 JUMP JUMPDEST SWAP1 POP EQ ISZERO SWAP1 POP SWAP2 SWAP1 POP JUMP JUMPDEST PUSH1 0x0 PUSH2 0x7EC DUP3 PUSH1 0x0 PUSH2 0x7F3 JUMP JUMPDEST SWAP1 POP SWAP2 SWAP1 POP JUMP JUMPDEST PUSH1 0x0 DUP2 SELFBALANCE LT ISZERO PUSH2 0x83C JUMPI SELFBALANCE DUP3 PUSH1 0x40 MLOAD PUSH32 0xCF47918100000000000000000000000000000000000000000000000000000000 DUP2 MSTORE PUSH1 0x4 ADD PUSH2 0x833 SWAP3 SWAP2 SWAP1 PUSH2 0x10D4 JUMP JUMPDEST PUSH1 0x40 MLOAD DUP1 SWAP2 SUB SWAP1 REVERT JUMPDEST PUSH23 0x3D602D80600A3D3981F3363D3D373D3D3D363D73000000 DUP4 PUSH1 0x60 SHL PUSH1 0xE8 SHR OR PUSH1 0x0 MSTORE PUSH15 0x5AF43D82803E903D91602B57FD5BF3 DUP4 PUSH1 0x78 SHL OR PUSH1 0x20 MSTORE PUSH1 0x37 PUSH1 0x9 DUP4 CREATE SWAP1 POP PUSH1 0x0 PUSH20 0xFFFFFFFFFFFFFFFFFFFFFFFFFFFFFFFFFFFFFFFF AND DUP2 PUSH20 0xFFFFFFFFFFFFFFFFFFFFFFFFFFFFFFFFFFFFFFFF AND SUB PUSH2 0x8E5 JUMPI PUSH1 0x40 MLOAD PUSH32 0xB06EBF3D00000000000000000000000000000000000000000000000000000000 DUP2 MSTORE PUSH1 0x4 ADD PUSH1 0x40 MLOAD DUP1 SWAP2 SUB SWAP1 REVERT JUMPDEST SWAP3 SWAP2 POP POP JUMP JUMPDEST PUSH1 0x0 DUP1 REVERT JUMPDEST PUSH1 0x0 DUP1 REVERT JUMPDEST PUSH1 0x0 PUSH20 0xFFFFFFFFFFFFFFFFFFFFFFFFFFFFFFFFFFFFFFFF DUP3 AND SWAP1 POP SWAP2 SWAP1 POP JUMP JUMPDEST PUSH1 0x0 PUSH2 0x920 DUP3 PUSH2 0x8F5 JUMP JUMPDEST SWAP1 POP SWAP2 SWAP1 POP JUMP JUMPDEST PUSH2 0x930 DUP2 PUSH2 0x915 JUMP JUMPDEST DUP2 EQ PUSH2 0x93B JUMPI PUSH1 0x0 DUP1 REVERT JUMPDEST POP JUMP JUMPDEST PUSH1 0x0 DUP2 CALLDATALOAD SWAP1 POP PUSH2 0x94D DUP2 PUSH2 0x927 JUMP JUMPDEST SWAP3 SWAP2 POP POP JUMP JUMPDEST PUSH1 0x0 PUSH1 0x20 DUP3 DUP5 SUB SLT ISZERO PUSH2 0x969 JUMPI PUSH2 0x968 PUSH2 0x8EB JUMP JUMPDEST JUMPDEST PUSH1 0x0 PUSH2 0x977 DUP5 DUP3 DUP6 ADD PUSH2 0x93E JUMP JUMPDEST SWAP2 POP POP SWAP3 SWAP2 POP POP JUMP JUMPDEST PUSH1 0x0 DUP2 MLOAD SWAP1 POP SWAP2 SWAP1 POP JUMP JUMPDEST PUSH1 0x0 DUP3 DUP3 MSTORE PUSH1 0x20 DUP3 ADD SWAP1 POP SWAP3 SWAP2 POP POP JUMP JUMPDEST PUSH1 0x0 DUP2 SWAP1 POP PUSH1 0x20 DUP3 ADD SWAP1 POP SWAP2 SWAP1 POP JUMP JUMPDEST PUSH2 0x9B5 DUP2 PUSH2 0x915 JUMP JUMPDEST DUP3 MSTORE POP POP JUMP JUMPDEST PUSH1 0x0 PUSH2 0x9C7 DUP4 DUP4 PUSH2 0x9AC JUMP JUMPDEST PUSH1 0x20 DUP4 ADD SWAP1 POP SWAP3 SWAP2 POP POP JUMP JUMPDEST PUSH1 0x0 PUSH1 0x20 DUP3 ADD SWAP1 POP SWAP2 SWAP1 POP JUMP JUMPDEST PUSH1 0x0 PUSH2 0x9EB DUP3 PUSH2 0x980 JUMP JUMPDEST PUSH2 0x9F5 DUP2 DUP6 PUSH2 0x98B JUMP JUMPDEST SWAP4 POP PUSH2 0xA00 DUP4 PUSH2 0x99C JUMP JUMPDEST DUP1 PUSH1 0x0 JUMPDEST DUP4 DUP2 LT ISZERO PUSH2 0xA31 JUMPI DUP2 MLOAD PUSH2 0xA18 DUP9 DUP3 PUSH2 0x9BB JUMP JUMPDEST SWAP8 POP PUSH2 0xA23 DUP4 PUSH2 0x9D3 JUMP JUMPDEST SWAP3 POP POP PUSH1 0x1 DUP2 ADD SWAP1 POP PUSH2 0xA04 JUMP JUMPDEST POP DUP6 SWAP4 POP POP POP POP SWAP3 SWAP2 POP POP JUMP JUMPDEST PUSH1 0x0 PUSH1 0x20 DUP3 ADD SWAP1 POP DUP2 DUP2 SUB PUSH1 0x0 DUP4 ADD MSTORE PUSH2 0xA58 DUP2 DUP5 PUSH2 0x9E0 JUMP JUMPDEST SWAP1 POP SWAP3 SWAP2 POP POP JUMP JUMPDEST PUSH1 0x0 DUP2 MLOAD SWAP1 POP SWAP2 SWAP1 POP JUMP JUMPDEST PUSH1 0x0 DUP3 DUP3 MSTORE PUSH1 0x20 DUP3 ADD SWAP1 POP SWAP3 SWAP2 POP POP JUMP JUMPDEST PUSH1 0x0 JUMPDEST DUP4 DUP2 LT ISZERO PUSH2 0xA9A JUMPI DUP1 DUP3 ADD MLOAD DUP2 DUP5 ADD MSTORE PUSH1 0x20 DUP2 ADD SWAP1 POP PUSH2 0xA7F JUMP JUMPDEST PUSH1 0x0 DUP5 DUP5 ADD MSTORE POP POP POP POP JUMP JUMPDEST PUSH1 0x0 PUSH1 0x1F NOT PUSH1 0x1F DUP4 ADD AND SWAP1 POP SWAP2 SWAP1 POP JUMP JUMPDEST PUSH1 0x0 PUSH2 0xAC2 DUP3 PUSH2 0xA60 JUMP JUMPDEST PUSH2 0xACC DUP2 DUP6 PUSH2 0xA6B JUMP JUMPDEST SWAP4 POP PUSH2 0xADC DUP2 DUP6 PUSH1 0x20 DUP7 ADD PUSH2 0xA7C JUMP JUMPDEST PUSH2 0xAE5 DUP2 PUSH2 0xAA6 JUMP JUMPDEST DUP5 ADD SWAP2 POP POP SWAP3 SWAP2 POP POP JUMP JUMPDEST PUSH1 0x0 PUSH1 0x20 DUP3 ADD SWAP1 POP DUP2 DUP2 SUB PUSH1 0x0 DUP4 ADD MSTORE PUSH2 0xB0A DUP2 DUP5 PUSH2 0xAB7 JUMP JUMPDEST SWAP1 POP SWAP3 SWAP2 POP POP JUMP JUMPDEST PUSH1 0x0 DUP1 REVERT JUMPDEST PUSH1 0x0 DUP1 REVERT JUMPDEST PUSH1 0x0 DUP1 REVERT JUMPDEST PUSH1 0x0 DUP1 DUP4 PUSH1 0x1F DUP5 ADD SLT PUSH2 0xB37 JUMPI PUSH2 0xB36 PUSH2 0xB12 JUMP JUMPDEST JUMPDEST DUP3 CALLDATALOAD SWAP1 POP PUSH8 0xFFFFFFFFFFFFFFFF DUP2 GT ISZERO PUSH2 0xB54 JUMPI PUSH2 0xB53 PUSH2 0xB17 JUMP JUMPDEST JUMPDEST PUSH1 0x20 DUP4 ADD SWAP2 POP DUP4 PUSH1 0x1 DUP3 MUL DUP4 ADD GT ISZERO PUSH2 0xB70 JUMPI PUSH2 0xB6F PUSH2 0xB1C JUMP JUMPDEST JUMPDEST SWAP3 POP SWAP3 SWAP1 POP JUMP JUMPDEST PUSH1 0x0 DUP1 PUSH1 0x20 DUP4 DUP6 SUB SLT ISZERO PUSH2 0xB8E JUMPI PUSH2 0xB8D PUSH2 0x8EB JUMP JUMPDEST JUMPDEST PUSH1 0x0 DUP4 ADD CALLDATALOAD PUSH8 0xFFFFFFFFFFFFFFFF DUP2 GT ISZERO PUSH2 0xBAC JUMPI PUSH2 0xBAB PUSH2 0x8F0 JUMP JUMPDEST JUMPDEST PUSH2 0xBB8 DUP6 DUP3 DUP7 ADD PUSH2 0xB21 JUMP JUMPDEST SWAP3 POP SWAP3 POP POP SWAP3 POP SWAP3 SWAP1 POP JUMP JUMPDEST PUSH2 0xBCD DUP2 PUSH2 0x915 JUMP JUMPDEST DUP3 MSTORE POP POP JUMP JUMPDEST PUSH1 0x0 PUSH1 0x20 DUP3 ADD SWAP1 POP PUSH2 0xBE8 PUSH1 0x0 DUP4 ADD DUP5 PUSH2 0xBC4 JUMP JUMPDEST SWAP3 SWAP2 POP POP JUMP JUMPDEST PUSH1 0x0 DUP2 SWAP1 POP SWAP2 SWAP1 POP JUMP JUMPDEST PUSH2 0xC01 DUP2 PUSH2 0xBEE JUMP JUMPDEST DUP2 EQ PUSH2 0xC0C JUMPI PUSH1 0x0 DUP1 REVERT JUMPDEST POP JUMP JUMPDEST PUSH1 0x0 DUP2 CALLDATALOAD SWAP1 POP PUSH2 0xC1E DUP2 PUSH2 0xBF8 JUMP JUMPDEST SWAP3 SWAP2 POP POP JUMP JUMPDEST PUSH1 0x0 DUP1 PUSH1 0x40 DUP4 DUP6 SUB SLT ISZERO PUSH2 0xC3B JUMPI PUSH2 0xC3A PUSH2 0x8EB JUMP JUMPDEST JUMPDEST PUSH1 0x0 PUSH2 0xC49 DUP6 DUP3 DUP7 ADD PUSH2 0x93E JUMP JUMPDEST SWAP3 POP POP PUSH1 0x20 PUSH2 0xC5A DUP6 DUP3 DUP7 ADD PUSH2 0xC0F JUMP JUMPDEST SWAP2 POP POP SWAP3 POP SWAP3 SWAP1 POP JUMP JUMPDEST PUSH1 0x0 PUSH1 0x20 DUP3 DUP5 SUB SLT ISZERO PUSH2 0xC7A JUMPI PUSH2 0xC79 PUSH2 0x8EB JUMP JUMPDEST JUMPDEST PUSH1 0x0 PUSH2 0xC88 DUP5 DUP3 DUP6 ADD PUSH2 0xC0F JUMP JUMPDEST SWAP2 POP POP SWAP3 SWAP2 POP POP JUMP JUMPDEST PUSH1 0x0 DUP2 ISZERO ISZERO SWAP1 POP SWAP2 SWAP1 POP JUMP JUMPDEST PUSH2 0xCA6 DUP2 PUSH2 0xC91 JUMP JUMPDEST DUP3 MSTORE POP POP JUMP JUMPDEST PUSH1 0x0 PUSH1 0x20 DUP3 ADD SWAP1 POP PUSH2 0xCC1 PUSH1 0x0 DUP4 ADD DUP5 PUSH2 0xC9D JUMP JUMPDEST SWAP3 SWAP2 POP POP JUMP JUMPDEST PUSH32 0x4E487B7100000000000000000000000000000000000000000000000000000000 PUSH1 0x0 MSTORE PUSH1 0x22 PUSH1 0x4 MSTORE PUSH1 0x24 PUSH1 0x0 REVERT JUMPDEST PUSH1 0x0 PUSH1 0x2 DUP3 DIV SWAP1 POP PUSH1 0x1 DUP3 AND DUP1 PUSH2 0xD0E JUMPI PUSH1 0x7F DUP3 AND SWAP2 POP JUMPDEST PUSH1 0x20 DUP3 LT DUP2 SUB PUSH2 0xD21 JUMPI PUSH2 0xD20 PUSH2 0xCC7 JUMP JUMPDEST JUMPDEST POP SWAP2 SWAP1 POP JUMP JUMPDEST PUSH32 0x6E616D655F2063616E6E6F7420626520656D7074790000000000000000000000 PUSH1 0x0 DUP3 ADD MSTORE POP JUMP JUMPDEST PUSH1 0x0 PUSH2 0xD5D PUSH1 0x15 DUP4 PUSH2 0xA6B JUMP JUMPDEST SWAP2 POP PUSH2 0xD68 DUP3 PUSH2 0xD27 JUMP JUMPDEST PUSH1 0x20 DUP3 ADD SWAP1 POP SWAP2 SWAP1 POP JUMP JUMPDEST PUSH1 0x0 PUSH1 0x20 DUP3 ADD SWAP1 POP DUP2 DUP2 SUB PUSH1 0x0 DUP4 ADD MSTORE PUSH2 0xD8C DUP2 PUSH2 0xD50 JUMP JUMPDEST SWAP1 POP SWAP2 SWAP1 POP JUMP JUMPDEST DUP3 DUP2 DUP4 CALLDATACOPY PUSH1 0x0 DUP4 DUP4 ADD MSTORE POP POP POP JUMP JUMPDEST PUSH1 0x0 PUSH2 0xDAE DUP4 DUP6 PUSH2 0xA6B JUMP JUMPDEST SWAP4 POP PUSH2 0xDBB DUP4 DUP6 DUP5 PUSH2 0xD93 JUMP JUMPDEST PUSH2 0xDC4 DUP4 PUSH2 0xAA6 JUMP JUMPDEST DUP5 ADD SWAP1 POP SWAP4 SWAP3 POP POP POP JUMP JUMPDEST PUSH1 0x0 PUSH1 0x60 DUP3 ADD SWAP1 POP PUSH2 0xDE4 PUSH1 0x0 DUP4 ADD DUP8 PUSH2 0xBC4 JUMP JUMPDEST DUP2 DUP2 SUB PUSH1 0x20 DUP4 ADD MSTORE PUSH2 0xDF7 DUP2 DUP6 DUP8 PUSH2 0xDA2 JUMP JUMPDEST SWAP1 POP PUSH2 0xE06 PUSH1 0x40 DUP4 ADD DUP5 PUSH2 0xBC4 JUMP JUMPDEST SWAP6 SWAP5 POP POP POP POP POP JUMP JUMPDEST PUSH1 0x0 DUP3 SWAP1 POP SWAP3 SWAP2 POP POP JUMP JUMPDEST PUSH32 0x4E487B7100000000000000000000000000000000000000000000000000000000 PUSH1 0x0 MSTORE PUSH1 0x41 PUSH1 0x4 MSTORE PUSH1 0x24 PUSH1 0x0 REVERT JUMPDEST PUSH1 0x0 DUP2 SWAP1 POP DUP2 PUSH1 0x0 MSTORE PUSH1 0x20 PUSH1 0x0 KECCAK256 SWAP1 POP SWAP2 SWAP1 POP JUMP JUMPDEST PUSH1 0x0 PUSH1 0x20 PUSH1 0x1F DUP4 ADD DIV SWAP1 POP SWAP2 SWAP1 POP JUMP JUMPDEST PUSH1 0x0 DUP3 DUP3 SHL SWAP1 POP SWAP3 SWAP2 POP POP JUMP JUMPDEST PUSH1 0x0 PUSH1 0x8 DUP4 MUL PUSH2 0xEAB PUSH32 0xFFFFFFFFFFFFFFFFFFFFFFFFFFFFFFFFFFFFFFFFFFFFFFFFFFFFFFFFFFFFFFFF DUP3 PUSH2 0xE6E JUMP JUMPDEST PUSH2 0xEB5 DUP7 DUP4 PUSH2 0xE6E JUMP JUMPDEST SWAP6 POP DUP1 NOT DUP5 AND SWAP4 POP DUP1 DUP7 AND DUP5 OR SWAP3 POP POP POP SWAP4 SWAP3 POP POP POP JUMP JUMPDEST PUSH1 0x0 DUP2 SWAP1 POP SWAP2 SWAP1 POP JUMP JUMPDEST PUSH1 0x0 PUSH2 0xEF2 PUSH2 0xEED PUSH2 0xEE8 DUP5 PUSH2 0xBEE JUMP JUMPDEST PUSH2 0xECD JUMP JUMPDEST PUSH2 0xBEE JUMP JUMPDEST SWAP1 POP SWAP2 SWAP1 POP JUMP JUMPDEST PUSH1 0x0 DUP2 SWAP1 POP SWAP2 SWAP1 POP JUMP JUMPDEST PUSH2 0xF0C DUP4 PUSH2 0xED7 JUMP JUMPDEST PUSH2 0xF20 PUSH2 0xF18 DUP3 PUSH2 0xEF9 JUMP JUMPDEST DUP5 DUP5 SLOAD PUSH2 0xE7B JUMP JUMPDEST DUP3 SSTORE POP POP POP POP JUMP JUMPDEST PUSH1 0x0 SWAP1 JUMP JUMPDEST PUSH2 0xF35 PUSH2 0xF28 JUMP JUMPDEST PUSH2 0xF40 DUP2 DUP5 DUP5 PUSH2 0xF03 JUMP JUMPDEST POP POP POP JUMP JUMPDEST JUMPDEST DUP2 DUP2 LT ISZERO PUSH2 0xF64 JUMPI PUSH2 0xF59 PUSH1 0x0 DUP3 PUSH2 0xF2D JUMP JUMPDEST PUSH1 0x1 DUP2 ADD SWAP1 POP PUSH2 0xF46 JUMP JUMPDEST POP POP JUMP JUMPDEST PUSH1 0x1F DUP3 GT ISZERO PUSH2 0xFA9 JUMPI PUSH2 0xF7A DUP2 PUSH2 0xE49 JUMP JUMPDEST PUSH2 0xF83 DUP5 PUSH2 0xE5E JUMP JUMPDEST DUP2 ADD PUSH1 0x20 DUP6 LT ISZERO PUSH2 0xF92 JUMPI DUP2 SWAP1 POP JUMPDEST PUSH2 0xFA6 PUSH2 0xF9E DUP6 PUSH2 0xE5E JUMP JUMPDEST DUP4 ADD DUP3 PUSH2 0xF45 JUMP JUMPDEST POP POP JUMPDEST POP POP POP JUMP JUMPDEST PUSH1 0x0 DUP3 DUP3 SHR SWAP1 POP SWAP3 SWAP2 POP POP JUMP JUMPDEST PUSH1 0x0 PUSH2 0xFCC PUSH1 0x0 NOT DUP5 PUSH1 0x8 MUL PUSH2 0xFAE JUMP JUMPDEST NOT DUP1 DUP4 AND SWAP2 POP POP SWAP3 SWAP2 POP POP JUMP JUMPDEST PUSH1 0x0 PUSH2 0xFE5 DUP4 DUP4 PUSH2 0xFBB JUMP JUMPDEST SWAP2 POP DUP3 PUSH1 0x2 MUL DUP3 OR SWAP1 POP SWAP3 SWAP2 POP POP JUMP JUMPDEST PUSH2 0xFFF DUP4 DUP4 PUSH2 0xE0F JUMP JUMPDEST PUSH8 0xFFFFFFFFFFFFFFFF DUP2 GT ISZERO PUSH2 0x1018 JUMPI PUSH2 0x1017 PUSH2 0xE1A JUMP JUMPDEST JUMPDEST PUSH2 0x1022 DUP3 SLOAD PUSH2 0xCF6 JUMP JUMPDEST PUSH2 0x102D DUP3 DUP3 DUP6 PUSH2 0xF68 JUMP JUMPDEST PUSH1 0x0 PUSH1 0x1F DUP4 GT PUSH1 0x1 DUP2 EQ PUSH2 0x105C JUMPI PUSH1 0x0 DUP5 ISZERO PUSH2 0x104A JUMPI DUP3 DUP8 ADD CALLDATALOAD SWAP1 POP JUMPDEST PUSH2 0x1054 DUP6 DUP3 PUSH2 0xFD9 JUMP JUMPDEST DUP7 SSTORE POP PUSH2 0x10BC JUMP JUMPDEST PUSH1 0x1F NOT DUP5 AND PUSH2 0x106A DUP7 PUSH2 0xE49 JUMP JUMPDEST PUSH1 0x0 JUMPDEST DUP3 DUP2 LT ISZERO PUSH2 0x1092 JUMPI DUP5 DUP10 ADD CALLDATALOAD DUP3 SSTORE PUSH1 0x1 DUP3 ADD SWAP2 POP PUSH1 0x20 DUP6 ADD SWAP5 POP PUSH1 0x20 DUP2 ADD SWAP1 POP PUSH2 0x106D JUMP JUMPDEST DUP7 DUP4 LT ISZERO PUSH2 0x10AF JUMPI DUP5 DUP10 ADD CALLDATALOAD PUSH2 0x10AB PUSH1 0x1F DUP10 AND DUP3 PUSH2 0xFBB JUMP JUMPDEST DUP4 SSTORE POP JUMPDEST PUSH1 0x1 PUSH1 0x2 DUP9 MUL ADD DUP9 SSTORE POP POP POP JUMPDEST POP POP POP POP POP POP POP JUMP JUMPDEST PUSH2 0x10CE DUP2 PUSH2 0xBEE JUMP JUMPDEST DUP3 MSTORE POP POP JUMP JUMPDEST PUSH1 0x0 PUSH1 0x40 DUP3 ADD SWAP1 POP PUSH2 0x10E9 PUSH1 0x0 DUP4 ADD DUP6 PUSH2 0x10C5 JUMP JUMPDEST PUSH2 0x10F6 PUSH1 0x20 DUP4 ADD DUP5 PUSH2 0x10C5 JUMP JUMPDEST SWAP4 SWAP3 POP POP POP JUMP INVALID LOG2 PUSH5 0x6970667358 0x22 SLT KECCAK256 0xF8 CALLDATASIZE 0xB9 0x2D MCOPY MOD 0xD4 SSTORE XOR 0xC PUSH10 0x1F4E5F944804CBA59B10 PUSH24 0xCDE4EEF78D07DF39FE4064736F6C634300081B0033000000 "
        },
        "methodIdentifiers": {
          "createOrga(string)": "8068d50c",
          "doesOrgaExist(address)": "d4b904e4",
          "getOrgas()": "127acc22",
          "getOrgasByUser(address)": "00becc1c",
          "logicContractAddress()": "bccda810",
          "orgaAddressToOrgaName(address)": "635115b6",
          "orgas(uint256)": "bfd38b8d",
          "userToOrgas(address,uint256)": "b1808b6f",
          "version()": "54fd4d50"
        }
      }
    }
  }
}